:020000020000FC
:0200000020C01E
:1000400071C00EE7002E0CE0102E06EB202E0EE9FC
:10005000302E0CEC402E0AED502E0AEF602E0EE0F2
:10006000702E0EEF802E0EED902E20E005E005BDE7
:1000700001E000936E007894002706BD0EEF0AB9E8
:1000800000E204B903E005B900E00BB921E043E068
:1000900033B130FF11D031FF17D001E0032301301D
:1000A00011F401E0402B02E00323023011F402E0DE
:1000B000402B12D033D0ECDF01E00423013019F4DF
:1000C00023950EEF4023089502E00423023019F433
:1000D0002A950DEF402308952A3009F429E02030B5
:1000E00009F40BB8213009F41BB8223009F42BB8FD
:1000F000233009F43BB8243009F44BB8253009F417
:100100005BB8263009F46BB8273009F47BB8283087
:1001100009F48BB8293009F49BB8089511271E31D2
:0E012000F1F7089513951D3309F41127189572
:00000001FF
