:020000020000FC
:0200000020C01E
:1000400053C00EE7002E0CE0102E06EB202E0EE91A
:10005000302E0CEC402E0AED502E0AEF602E0EE0F2
:10006000702E0EEF802E0EED902E20E005E005BDE7
:1000700001E000936E007894002706BD209A0EEFF1
:100080000AB900E204B903E00BB933B1333009F423
:1000900030FF239531FF2A9501D0F7DF2A3009F48C
:1000A00029E0203009F40BB8213009F41BB82230C4
:1000B00009F42BB8233009F43BB8243009F44BB8C9
:1000C000253009F45BB8263009F46BB8273009F401
:1000D0007BB8283009F48BB8293009F49BB808950F
:1000E00011271E31F1F7089513951D3309F41127D7
:0200F000189561
:00000001FF
