:020000020000FC
:040000000C9422003A
:100040000C9476004EE7042E4CE0142E46EB242E42
:100050004EE9342E4CEC442E4AED542E4AEF642ED9
:100060004EE0742E4EEF842E4EED942E03E204B932
:100070000EEF0AB90BB8E0E0F0E044E045BD01E066
:1000800000936E007894442746BD952D00C0299AB0
:1000900028989BB927D0289A299803D023D0F7CF46
:1000A000E395EA3009F4EE27E03009F40BB8E130CB
:1000B00009F41BB8E23009F42BB8E33009F43BB87B
:1000C000E43009F44BB8E53009F45BB8E63009F4E4
:1000D0006BB8E73009F47BB8E83009F48BB8E93045
:1000E00009F49BB822272130F1F7089523952D3389
:0600F00009F42227189517
:00000001FF
