:020000020000FC
:040000000C9422003A
:100040000C9475004EE7042E4CE0142E46EB242E43
:100050004EE9342E4CEC442E4AED542E4AEF642ED9
:100060004EE0742E4EEF842E4EED942E03E204B932
:1000700004E005B90EEF0AB944E045BD01E0009384
:100080006E007894442746BD952D00C02AD013B148
:1000900012FD02D003D0FACF2D9AF8CF2D983395C8
:1000A0003A3009F43327303009F40BB8313009F411
:1000B0001BB8323009F42BB8333009F43BB8343074
:1000C00009F44BB8353009F45BB8363009F46BB835
:1000D000373009F47BB8383009F48BB8393009F47B
:1000E0009BB822272A30F1F7089523952D3309F480
:0400F0002227189516
:00000001FF
